{
  "contractName": "control",
  "abi": [
    {
      "constant": true,
      "inputs": [
        {
          "name": "",
          "type": "address"
        }
      ],
      "name": "patientExist",
      "outputs": [
        {
          "name": "",
          "type": "bool"
        }
      ],
      "payable": false,
      "stateMutability": "view",
      "type": "function",
      "signature": "0x2c80fac4"
    },
    {
      "constant": true,
      "inputs": [
        {
          "name": "",
          "type": "address"
        }
      ],
      "name": "doctorExist",
      "outputs": [
        {
          "name": "",
          "type": "bool"
        }
      ],
      "payable": false,
      "stateMutability": "view",
      "type": "function",
      "signature": "0xdc4f6027"
    },
    {
      "payable": true,
      "stateMutability": "payable",
      "type": "fallback"
    },
    {
      "constant": false,
      "inputs": [
        {
          "name": "_name",
          "type": "string"
        },
        {
          "name": "_age",
          "type": "uint8"
        },
        {
          "name": "_gender",
          "type": "uint8"
        }
      ],
      "name": "createPatient",
      "outputs": [],
      "payable": true,
      "stateMutability": "payable",
      "type": "function",
      "signature": "0x8f5b753c"
    },
    {
      "constant": false,
      "inputs": [
        {
          "name": "_name",
          "type": "string"
        },
        {
          "name": "_age",
          "type": "uint8"
        },
        {
          "name": "_gender",
          "type": "uint8"
        }
      ],
      "name": "createDoctor",
      "outputs": [],
      "payable": true,
      "stateMutability": "payable",
      "type": "function",
      "signature": "0x55a818ec"
    },
    {
      "constant": false,
      "inputs": [
        {
          "name": "patient",
          "type": "address"
        },
        {
          "name": "doctor",
          "type": "address"
        }
      ],
      "name": "giveApproval",
      "outputs": [],
      "payable": false,
      "stateMutability": "nonpayable",
      "type": "function",
      "signature": "0x4854bf03"
    },
    {
      "constant": false,
      "inputs": [
        {
          "name": "patient",
          "type": "address"
        },
        {
          "name": "doctor",
          "type": "address"
        }
      ],
      "name": "cancelApproval",
      "outputs": [],
      "payable": false,
      "stateMutability": "nonpayable",
      "type": "function",
      "signature": "0x102ad00b"
    },
    {
      "constant": true,
      "inputs": [
        {
          "name": "patient",
          "type": "address"
        }
      ],
      "name": "getRecordNumber",
      "outputs": [
        {
          "name": "",
          "type": "uint256"
        }
      ],
      "payable": false,
      "stateMutability": "view",
      "type": "function",
      "signature": "0xd96bfe0e"
    },
    {
      "constant": true,
      "inputs": [
        {
          "name": "patient",
          "type": "address"
        },
        {
          "name": "doctor",
          "type": "address"
        }
      ],
      "name": "getRecordNumber",
      "outputs": [
        {
          "name": "",
          "type": "uint256"
        }
      ],
      "payable": false,
      "stateMutability": "view",
      "type": "function",
      "signature": "0xfb978de0"
    },
    {
      "constant": false,
      "inputs": [
        {
          "name": "patient",
          "type": "address"
        },
        {
          "name": "doctor",
          "type": "address"
        },
        {
          "name": "symtom",
          "type": "string"
        },
        {
          "name": "diagnosis",
          "type": "string"
        }
      ],
      "name": "addRecord",
      "outputs": [],
      "payable": false,
      "stateMutability": "nonpayable",
      "type": "function",
      "signature": "0x38d0cd9d"
    },
    {
      "constant": true,
      "inputs": [
        {
          "name": "recordId",
          "type": "uint256"
        },
        {
          "name": "person",
          "type": "address"
        }
      ],
      "name": "getRecord",
      "outputs": [
        {
          "name": "",
          "type": "uint256"
        },
        {
          "name": "",
          "type": "string"
        },
        {
          "name": "",
          "type": "string"
        }
      ],
      "payable": false,
      "stateMutability": "view",
      "type": "function",
      "signature": "0x82d8185c"
    }
  ],
  "bytecode": "0x608060405234801561001057600080fd5b50612a16806100206000396000f3006080604052600436106100a4576000357c0100000000000000000000000000000000000000000000000000000000900463ffffffff168063102ad00b146100a65780632c80fac41461010957806338d0cd9d146101645780634854bf03146101f757806355a818ec1461025a57806382d8185c146102a25780638f5b753c146103db578063d96bfe0e14610423578063dc4f60271461047a578063fb978de0146104d5575b005b3480156100b257600080fd5b50610107600480360381019080803573ffffffffffffffffffffffffffffffffffffffff169060200190929190803573ffffffffffffffffffffffffffffffffffffffff16906020019092919050505061054c565b005b34801561011557600080fd5b5061014a600480360381019080803573ffffffffffffffffffffffffffffffffffffffff169060200190929190505050610857565b604051808215151515815260200191505060405180910390f35b34801561017057600080fd5b506101f5600480360381019080803573ffffffffffffffffffffffffffffffffffffffff169060200190929190803573ffffffffffffffffffffffffffffffffffffffff169060200190929190803590602001908201803590602001919091929391929390803590602001908201803590602001919091929391929390505050610877565b005b34801561020357600080fd5b50610258600480360381019080803573ffffffffffffffffffffffffffffffffffffffff169060200190929190803573ffffffffffffffffffffffffffffffffffffffff169060200190929190505050610a84565b005b6102a0600480360381019080803590602001908201803590602001919091929391929390803560ff169060200190929190803560ff169060200190929190505050610d8f565b005b3480156102ae57600080fd5b506102ed60048036038101908080359060200190929190803573ffffffffffffffffffffffffffffffffffffffff169060200190929190505050610f5d565b604051808481526020018060200180602001838103835285818151815260200191508051906020019080838360005b8381101561033757808201518184015260208101905061031c565b50505050905090810190601f1680156103645780820380516001836020036101000a031916815260200191505b50838103825284818151815260200191508051906020019080838360005b8381101561039d578082015181840152602081019050610382565b50505050905090810190601f1680156103ca5780820380516001836020036101000a031916815260200191505b509550505050505060405180910390f35b610421600480360381019080803590602001908201803590602001919091929391929390803560ff169060200190929190803560ff16906020019092919050505061115a565b005b34801561042f57600080fd5b50610464600480360381019080803573ffffffffffffffffffffffffffffffffffffffff169060200190929190505050611326565b6040518082815260200191505060405180910390f35b34801561048657600080fd5b506104bb600480360381019080803573ffffffffffffffffffffffffffffffffffffffff169060200190929190505050611513565b604051808215151515815260200191505060405180910390f35b3480156104e157600080fd5b50610536600480360381019080803573ffffffffffffffffffffffffffffffffffffffff169060200190929190803573ffffffffffffffffffffffffffffffffffffffff169060200190929190505050611533565b6040518082815260200191505060405180910390f35b600160003373ffffffffffffffffffffffffffffffffffffffff1673ffffffffffffffffffffffffffffffffffffffff16815260200190815260200160002060009054906101000a900460ff1615156105a457600080fd5b600360008273ffffffffffffffffffffffffffffffffffffffff1673ffffffffffffffffffffffffffffffffffffffff16815260200190815260200160002060009054906101000a900460ff1615156105fc57600080fd5b600260008273ffffffffffffffffffffffffffffffffffffffff1673ffffffffffffffffffffffffffffffffffffffff16815260200190815260200160002060009054906101000a900473ffffffffffffffffffffffffffffffffffffffff1673ffffffffffffffffffffffffffffffffffffffff16636549c135836040518263ffffffff167c0100000000000000000000000000000000000000000000000000000000028152600401808273ffffffffffffffffffffffffffffffffffffffff1673ffffffffffffffffffffffffffffffffffffffff168152602001915050600060405180830381600087803b1580156106f657600080fd5b505af115801561070a573d6000803e3d6000fd5b505050506000808373ffffffffffffffffffffffffffffffffffffffff1673ffffffffffffffffffffffffffffffffffffffff16815260200190815260200160002060009054906101000a900473ffffffffffffffffffffffffffffffffffffffff1673ffffffffffffffffffffffffffffffffffffffff1663102ad00b83836040518363ffffffff167c0100000000000000000000000000000000000000000000000000000000028152600401808373ffffffffffffffffffffffffffffffffffffffff1673ffffffffffffffffffffffffffffffffffffffff1681526020018273ffffffffffffffffffffffffffffffffffffffff1673ffffffffffffffffffffffffffffffffffffffff16815260200192505050600060405180830381600087803b15801561083b57600080fd5b505af115801561084f573d6000803e3d6000fd5b505050505050565b60016020528060005260406000206000915054906101000a900460ff1681565b600360003373ffffffffffffffffffffffffffffffffffffffff1673ffffffffffffffffffffffffffffffffffffffff16815260200190815260200160002060009054906101000a900460ff1615156108cf57600080fd5b600160008773ffffffffffffffffffffffffffffffffffffffff1673ffffffffffffffffffffffffffffffffffffffff16815260200190815260200160002060009054906101000a900460ff16151561092757600080fd5b6000808773ffffffffffffffffffffffffffffffffffffffff1673ffffffffffffffffffffffffffffffffffffffff16815260200190815260200160002060009054906101000a900473ffffffffffffffffffffffffffffffffffffffff1673ffffffffffffffffffffffffffffffffffffffff1663d47b41d586868686866040518663ffffffff167c0100000000000000000000000000000000000000000000000000000000028152600401808673ffffffffffffffffffffffffffffffffffffffff1673ffffffffffffffffffffffffffffffffffffffff16815260200180602001806020018381038352878782818152602001925080828437820191505083810382528585828181526020019250808284378201915050975050505050505050600060405180830381600087803b158015610a6457600080fd5b505af1158015610a78573d6000803e3d6000fd5b50505050505050505050565b600160003373ffffffffffffffffffffffffffffffffffffffff1673ffffffffffffffffffffffffffffffffffffffff16815260200190815260200160002060009054906101000a900460ff161515610adc57600080fd5b600360008273ffffffffffffffffffffffffffffffffffffffff1673ffffffffffffffffffffffffffffffffffffffff16815260200190815260200160002060009054906101000a900460ff161515610b3457600080fd5b600260008273ffffffffffffffffffffffffffffffffffffffff1673ffffffffffffffffffffffffffffffffffffffff16815260200190815260200160002060009054906101000a900473ffffffffffffffffffffffffffffffffffffffff1673ffffffffffffffffffffffffffffffffffffffff166385b175ca836040518263ffffffff167c0100000000000000000000000000000000000000000000000000000000028152600401808273ffffffffffffffffffffffffffffffffffffffff1673ffffffffffffffffffffffffffffffffffffffff168152602001915050600060405180830381600087803b158015610c2e57600080fd5b505af1158015610c42573d6000803e3d6000fd5b505050506000808373ffffffffffffffffffffffffffffffffffffffff1673ffffffffffffffffffffffffffffffffffffffff16815260200190815260200160002060009054906101000a900473ffffffffffffffffffffffffffffffffffffffff1673ffffffffffffffffffffffffffffffffffffffff16634854bf0383836040518363ffffffff167c0100000000000000000000000000000000000000000000000000000000028152600401808373ffffffffffffffffffffffffffffffffffffffff1673ffffffffffffffffffffffffffffffffffffffff1681526020018273ffffffffffffffffffffffffffffffffffffffff1673ffffffffffffffffffffffffffffffffffffffff16815260200192505050600060405180830381600087803b158015610d7357600080fd5b505af1158015610d87573d6000803e3d6000fd5b505050505050565b600360003373ffffffffffffffffffffffffffffffffffffffff1673ffffffffffffffffffffffffffffffffffffffff16815260200190815260200160002060009054906101000a900460ff16151515610de857600080fd5b6001600360003373ffffffffffffffffffffffffffffffffffffffff1673ffffffffffffffffffffffffffffffffffffffff16815260200190815260200160002060006101000a81548160ff0219169083151502179055503384848484610e4d611721565b808673ffffffffffffffffffffffffffffffffffffffff1673ffffffffffffffffffffffffffffffffffffffff168152602001806020018460ff1660ff1681526020018360ff1660ff168152602001828103825286868281815260200192508082843782019150509650505050505050604051809103906000f080158015610ed9573d6000803e3d6000fd5b50600260003373ffffffffffffffffffffffffffffffffffffffff1673ffffffffffffffffffffffffffffffffffffffff16815260200190815260200160002060006101000a81548173ffffffffffffffffffffffffffffffffffffffff021916908373ffffffffffffffffffffffffffffffffffffffff16021790555050505050565b60006060806000808573ffffffffffffffffffffffffffffffffffffffff1673ffffffffffffffffffffffffffffffffffffffff16815260200190815260200160002060009054906101000a900473ffffffffffffffffffffffffffffffffffffffff1673ffffffffffffffffffffffffffffffffffffffff1663cdb8acf085876040518363ffffffff167c0100000000000000000000000000000000000000000000000000000000028152600401808373ffffffffffffffffffffffffffffffffffffffff1673ffffffffffffffffffffffffffffffffffffffff16815260200182815260200192505050600060405180830381600087803b15801561106357600080fd5b505af1158015611077573d6000803e3d6000fd5b505050506040513d6000823e3d601f19601f8201168201806040525060608110156110a157600080fd5b810190808051906020019092919080516401000000008111156110c357600080fd5b828101905060208101848111156110d957600080fd5b81518560018202830111640100000000821117156110f657600080fd5b5050929190602001805164010000000081111561111257600080fd5b8281019050602081018481111561112857600080fd5b815185600182028301116401000000008211171561114557600080fd5b50509291905050509250925092509250925092565b600160003373ffffffffffffffffffffffffffffffffffffffff1673ffffffffffffffffffffffffffffffffffffffff16815260200190815260200160002060009054906101000a900460ff161515156111b357600080fd5b60018060003373ffffffffffffffffffffffffffffffffffffffff1673ffffffffffffffffffffffffffffffffffffffff16815260200190815260200160002060006101000a81548160ff0219169083151502179055503384848484611217611731565b808673ffffffffffffffffffffffffffffffffffffffff1673ffffffffffffffffffffffffffffffffffffffff168152602001806020018460ff1660ff1681526020018360ff1660ff168152602001828103825286868281815260200192508082843782019150509650505050505050604051809103906000f0801580156112a3573d6000803e3d6000fd5b506000803373ffffffffffffffffffffffffffffffffffffffff1673ffffffffffffffffffffffffffffffffffffffff16815260200190815260200160002060006101000a81548173ffffffffffffffffffffffffffffffffffffffff021916908373ffffffffffffffffffffffffffffffffffffffff16021790555050505050565b6000600160003373ffffffffffffffffffffffffffffffffffffffff1673ffffffffffffffffffffffffffffffffffffffff16815260200190815260200160002060009054906101000a900460ff16151561138057600080fd5b600160008373ffffffffffffffffffffffffffffffffffffffff1673ffffffffffffffffffffffffffffffffffffffff16815260200190815260200160002060009054906101000a900460ff1615156113d857600080fd5b6000808373ffffffffffffffffffffffffffffffffffffffff1673ffffffffffffffffffffffffffffffffffffffff16815260200190815260200160002060009054906101000a900473ffffffffffffffffffffffffffffffffffffffff1673ffffffffffffffffffffffffffffffffffffffff16634c0d49f4836040518263ffffffff167c0100000000000000000000000000000000000000000000000000000000028152600401808273ffffffffffffffffffffffffffffffffffffffff1673ffffffffffffffffffffffffffffffffffffffff168152602001915050602060405180830381600087803b1580156114d157600080fd5b505af11580156114e5573d6000803e3d6000fd5b505050506040513d60208110156114fb57600080fd5b81019080805190602001909291905050509050919050565b60036020528060005260406000206000915054906101000a900460ff1681565b6000600360003373ffffffffffffffffffffffffffffffffffffffff1673ffffffffffffffffffffffffffffffffffffffff16815260200190815260200160002060009054906101000a900460ff16151561158d57600080fd5b600160008473ffffffffffffffffffffffffffffffffffffffff1673ffffffffffffffffffffffffffffffffffffffff16815260200190815260200160002060009054906101000a900460ff1615156115e557600080fd5b6000808473ffffffffffffffffffffffffffffffffffffffff1673ffffffffffffffffffffffffffffffffffffffff16815260200190815260200160002060009054906101000a900473ffffffffffffffffffffffffffffffffffffffff1673ffffffffffffffffffffffffffffffffffffffff16634c0d49f4836040518263ffffffff167c0100000000000000000000000000000000000000000000000000000000028152600401808273ffffffffffffffffffffffffffffffffffffffff1673ffffffffffffffffffffffffffffffffffffffff168152602001915050602060405180830381600087803b1580156116de57600080fd5b505af11580156116f2573d6000803e3d6000fd5b505050506040513d602081101561170857600080fd5b8101908080519060200190929190505050905092915050565b60405161054b8061174283390190565b604051610d5e80611c8d833901905600608060405234801561001057600080fd5b5060405161054b38038061054b83398101806040528101908080519060200190929190805182019291906020018051906020019092919080519060200190929190505050336000806101000a81548173ffffffffffffffffffffffffffffffffffffffff021916908373ffffffffffffffffffffffffffffffffffffffff16021790555083600160006101000a81548173ffffffffffffffffffffffffffffffffffffffff021916908373ffffffffffffffffffffffffffffffffffffffff16021790555082600390805190602001906100eb92919061012b565b5081600460006101000a81548160ff021916908360ff16021790555080600460016101000a81548160ff021916908360ff160217905550505050506101d0565b828054600181600116156101000203166002900490600052602060002090601f016020900481019282601f1061016c57805160ff191683800117855561019a565b8280016001018555821561019a579182015b8281111561019957825182559160200191906001019061017e565b5b5090506101a791906101ab565b5090565b6101cd91905b808211156101c95760008160009055506001016101b1565b5090565b90565b61036c806101df6000396000f300608060405260043610610062576000357c0100000000000000000000000000000000000000000000000000000000900463ffffffff1680632f54bf6e146100675780636549c135146100c2578063673448dd1461010557806385b175ca14610160575b600080fd5b34801561007357600080fd5b506100a8600480360381019080803573ffffffffffffffffffffffffffffffffffffffff1690602001909291905050506101a3565b604051808215151515815260200191505060405180910390f35b3480156100ce57600080fd5b50610103600480360381019080803573ffffffffffffffffffffffffffffffffffffffff1690602001909291905050506101fd565b005b34801561011157600080fd5b50610146600480360381019080803573ffffffffffffffffffffffffffffffffffffffff16906020019092919050505061026e565b604051808215151515815260200191505060405180910390f35b34801561016c57600080fd5b506101a1600480360381019080803573ffffffffffffffffffffffffffffffffffffffff1690602001909291905050506102e5565b005b6000600160009054906101000a900473ffffffffffffffffffffffffffffffffffffffff1673ffffffffffffffffffffffffffffffffffffffff168273ffffffffffffffffffffffffffffffffffffffff16149050919050565b806102078161026e565b151561021257600080fd5b6000600560008473ffffffffffffffffffffffffffffffffffffffff1673ffffffffffffffffffffffffffffffffffffffff16815260200190815260200160002060006101000a81548160ff0219169083151502179055505050565b6000600560008373ffffffffffffffffffffffffffffffffffffffff1673ffffffffffffffffffffffffffffffffffffffff16815260200190815260200160002060009054906101000a900460ff16806102cd57506102cc826101a3565b5b156102db57600190506102e0565b600090505b919050565b6001600560008373ffffffffffffffffffffffffffffffffffffffff1673ffffffffffffffffffffffffffffffffffffffff16815260200190815260200160002060006101000a81548160ff021916908315150217905550505600a165627a7a72305820ce861a5a42080356c81e9233d7a01eb38b218e54dc12acf14f97c26eaab0c2270029608060405234801561001057600080fd5b50604051610d5e380380610d5e83398101806040528101908080519060200190929190805182019291906020018051906020019092919080519060200190929190505050336000806101000a81548173ffffffffffffffffffffffffffffffffffffffff021916908373ffffffffffffffffffffffffffffffffffffffff16021790555083600160006101000a81548173ffffffffffffffffffffffffffffffffffffffff021916908373ffffffffffffffffffffffffffffffffffffffff16021790555082600390805190602001906100eb92919061012b565b5081600460006101000a81548160ff021916908360ff16021790555080600460016101000a81548160ff021916908360ff160217905550505050506101d0565b828054600181600116156101000203166002900490600052602060002090601f016020900481019282601f1061016c57805160ff191683800117855561019a565b8280016001018555821561019a579182015b8281111561019957825182559160200191906001019061017e565b5b5090506101a791906101ab565b5090565b6101cd91905b808211156101c95760008160009055506001016101b1565b5090565b90565b610b7f806101df6000396000f300608060405260043610610083576000357c0100000000000000000000000000000000000000000000000000000000900463ffffffff168063102ad00b146100885780632f54bf6e146100eb5780634854bf03146101465780634c0d49f4146101a9578063673448dd14610200578063cdb8acf01461025b578063d47b41d514610394575b600080fd5b34801561009457600080fd5b506100e9600480360381019080803573ffffffffffffffffffffffffffffffffffffffff169060200190929190803573ffffffffffffffffffffffffffffffffffffffff169060200190929190505050610407565b005b3480156100f757600080fd5b5061012c600480360381019080803573ffffffffffffffffffffffffffffffffffffffff169060200190929190505050610479565b604051808215151515815260200191505060405180910390f35b34801561015257600080fd5b506101a7600480360381019080803573ffffffffffffffffffffffffffffffffffffffff169060200190929190803573ffffffffffffffffffffffffffffffffffffffff1690602001909291905050506104d3565b005b3480156101b557600080fd5b506101ea600480360381019080803573ffffffffffffffffffffffffffffffffffffffff169060200190929190505050610545565b6040518082815260200191505060405180910390f35b34801561020c57600080fd5b50610241600480360381019080803573ffffffffffffffffffffffffffffffffffffffff16906020019092919050505061056a565b604051808215151515815260200191505060405180910390f35b34801561026757600080fd5b506102a6600480360381019080803573ffffffffffffffffffffffffffffffffffffffff169060200190929190803590602001909291905050506105e1565b604051808481526020018060200180602001838103835285818151815260200191508051906020019080838360005b838110156102f05780820151818401526020810190506102d5565b50505050905090810190601f16801561031d5780820380516001836020036101000a031916815260200191505b50838103825284818151815260200191508051906020019080838360005b8381101561035657808201518184015260208101905061033b565b50505050905090810190601f1680156103835780820380516001836020036101000a031916815260200191505b509550505050505060405180910390f35b3480156103a057600080fd5b50610405600480360381019080803573ffffffffffffffffffffffffffffffffffffffff169060200190929190803590602001908201803590602001919091929391929390803590602001908201803590602001919091929391929390505050610800565b005b8161041181610479565b151561041c57600080fd5b6000600560008473ffffffffffffffffffffffffffffffffffffffff1673ffffffffffffffffffffffffffffffffffffffff16815260200190815260200160002060006101000a81548160ff021916908315150217905550505050565b6000600160009054906101000a900473ffffffffffffffffffffffffffffffffffffffff1673ffffffffffffffffffffffffffffffffffffffff168273ffffffffffffffffffffffffffffffffffffffff16149050919050565b816104dd81610479565b15156104e857600080fd5b6001600560008473ffffffffffffffffffffffffffffffffffffffff1673ffffffffffffffffffffffffffffffffffffffff16815260200190815260200160002060006101000a81548160ff021916908315150217905550505050565b6000816105518161056a565b151561055c57600080fd5b600680549050915050919050565b6000600560008373ffffffffffffffffffffffffffffffffffffffff1673ffffffffffffffffffffffffffffffffffffffff16815260200190815260200160002060009054906101000a900460ff16806105c957506105c882610479565b5b156105d757600190506105dc565b600090505b919050565b60006060806105ee610a68565b856105f88161056a565b151561060357600080fd5b60068681548110151561061257fe5b906000526020600020906005020160a060405190810160405290816000820154815260200160018201548152602001600282018054600181600116156101000203166002900480601f0160208091040260200160405190810160405280929190818152602001828054600181600116156101000203166002900480156106d95780601f106106ae576101008083540402835291602001916106d9565b820191906000526020600020905b8154815290600101906020018083116106bc57829003601f168201915b50505050508152602001600382018054600181600116156101000203166002900480601f01602080910402602001604051908101604052809291908181526020018280546001816001161561010002031660029004801561077b5780601f106107505761010080835404028352916020019161077b565b820191906000526020600020905b81548152906001019060200180831161075e57829003601f168201915b505050505081526020016004820160009054906101000a900473ffffffffffffffffffffffffffffffffffffffff1673ffffffffffffffffffffffffffffffffffffffff1673ffffffffffffffffffffffffffffffffffffffff1681525050915081602001518260400151836060015181915080905094509450945050509250925092565b60008561080c8161056a565b151561081757600080fd5b858585858a60405160200180868680828437820191505084848082843782019150508273ffffffffffffffffffffffffffffffffffffffff1673ffffffffffffffffffffffffffffffffffffffff166c01000000000000000000000000028152601401955050505050506040516020818303038152906040526040518082805190602001908083835b6020831015156108c557805182526020820191506020810190506020830392506108a0565b6001836020036101000a0380198251168184511680821785525050505050509050019150506040518091039020600190049150600660a06040519081016040528084815260200142815260200188888080601f016020809104026020016040519081016040528093929190818152602001838380828437820191505050505050815260200186868080601f01602080910402602001604051908101604052809392919081815260200183838082843782019150505050505081526020018973ffffffffffffffffffffffffffffffffffffffff1681525090806001815401808255809150509060018203906000526020600020906005020160009091929091909150600082015181600001556020820151816001015560408201518160020190805190602001906109f7929190610aae565b506060820151816003019080519060200190610a14929190610aae565b5060808201518160040160006101000a81548173ffffffffffffffffffffffffffffffffffffffff021916908373ffffffffffffffffffffffffffffffffffffffff16021790555050505050505050505050565b60a06040519081016040528060008152602001600081526020016060815260200160608152602001600073ffffffffffffffffffffffffffffffffffffffff1681525090565b828054600181600116156101000203166002900490600052602060002090601f016020900481019282601f10610aef57805160ff1916838001178555610b1d565b82800160010185558215610b1d579182015b82811115610b1c578251825591602001919060010190610b01565b5b509050610b2a9190610b2e565b5090565b610b5091905b80821115610b4c576000816000905550600101610b34565b5090565b905600a165627a7a72305820929aeb788cff5c3dd69049dcf761ec3975484ccc36f90a6a4dc3d1c37a1295c00029a165627a7a72305820c72b78760f78a33e30dc5bbcb77e9c44c2516a3a7ca64a7a07fca02a10059d6c0029",
  "source": "pragma solidity ^0.4.25;\r\n\r\nimport \"./doctor.sol\";\r\nimport \"./patient.sol\";\r\nimport \"./person.sol\";\r\nimport \"./repo.sol\";\r\n\r\ncontract control {\r\n    mapping (address => Patient) patients;\r\n    mapping (address => bool) public patientExist;\r\n    mapping (address => Doctor) doctors;\r\n    mapping (address => bool) public doctorExist;\r\n    \r\n    modifier onlyPatient() {\r\n        require(patientExist[msg.sender]);\r\n        _;\r\n    }\r\n    \r\n    modifier onlyDoctor() {\r\n        require(doctorExist[msg.sender]);\r\n        _;\r\n    }\r\n    \r\n    function createPatient(string _name, uint8 _age, uint8 _gender)\r\n        external\r\n        payable\r\n    {\r\n        require(!patientExist[msg.sender]);\r\n        patientExist[msg.sender] = true;\r\n        patients[msg.sender] = new Patient(msg.sender, _name, _age, _gender);\r\n    }\r\n    \r\n    function createDoctor(string _name, uint8 _age, uint8 _gender)\r\n        external\r\n        payable\r\n    {\r\n        require(!doctorExist[msg.sender]);\r\n        doctorExist[msg.sender] = true;\r\n        doctors[msg.sender] = new Doctor(msg.sender, _name, _age, _gender);\r\n    }\r\n    \r\n    function giveApproval(address patient, address doctor)\r\n        external\r\n        onlyPatient()\r\n    {\r\n        require(doctorExist[doctor]);\r\n        doctors[doctor].givenApproval(patient);\r\n        patients[patient].giveApproval(patient, doctor);\r\n    }\r\n    \r\n    function cancelApproval(address patient, address doctor)\r\n        external\r\n        onlyPatient()\r\n    {\r\n        require(doctorExist[doctor]);\r\n        doctors[doctor].cancelledApproval(patient);\r\n        patients[patient].cancelApproval(patient, doctor);\r\n    }\r\n    \r\n    function getRecordNumber(address patient)\r\n        external\r\n        view\r\n        onlyPatient()\r\n        returns(uint)\r\n    {\r\n        require(patientExist[patient]);\r\n        return patients[patient].getRecordsNumber(patient);\r\n    }\r\n    \r\n    function getRecordNumber(address patient, address doctor)\r\n        external\r\n        view\r\n        onlyDoctor()\r\n        returns(uint)\r\n    {\r\n        require(patientExist[patient]);\r\n        return patients[patient].getRecordsNumber(doctor);\r\n    }\r\n    \r\n    function addRecord(address patient, address doctor, string symtom, string diagnosis)\r\n        external\r\n        onlyDoctor()\r\n    {\r\n        require(patientExist[patient]);\r\n        patients[patient].addRecord(doctor, symtom, diagnosis);\r\n    }\r\n    \r\n    function getRecord(uint recordId, address person)\r\n        external\r\n        view\r\n        returns(uint, string, string)\r\n    {\r\n        return patients[person].getRecord(person, recordId);\r\n    }\r\n    \r\n    \r\n    function () public payable {\r\n    }\r\n}",
  "sourcePath": "A:/Ethereum/ehrProject/contracts/control.sol",
  "compiler": {
    "name": "solc",
    "version": "0.4.25+commit.59dbf8f1.Emscripten.clang"
  },
  "schemaVersion": "3.0.0",
  "updatedAt": "2018-12-31T15:18:51.759Z",
  "devdoc": {
    "methods": {}
  },
  "userdoc": {
    "methods": {}
  }
}