{
  "contractName": "Patient",
  "abi": [
    {
      "constant": true,
      "inputs": [
        {
          "name": "_sender",
          "type": "address"
        }
      ],
      "name": "isOwner",
      "outputs": [
        {
          "name": "",
          "type": "bool"
        }
      ],
      "payable": false,
      "stateMutability": "view",
      "type": "function"
    },
    {
      "constant": true,
      "inputs": [
        {
          "name": "_sender",
          "type": "address"
        }
      ],
      "name": "isApproved",
      "outputs": [
        {
          "name": "",
          "type": "bool"
        }
      ],
      "payable": false,
      "stateMutability": "view",
      "type": "function"
    },
    {
      "inputs": [
        {
          "name": "_owner",
          "type": "address"
        },
        {
          "name": "_name",
          "type": "string"
        },
        {
          "name": "_age",
          "type": "uint8"
        },
        {
          "name": "_gender",
          "type": "uint8"
        }
      ],
      "payable": false,
      "stateMutability": "nonpayable",
      "type": "constructor"
    },
    {
      "constant": false,
      "inputs": [
        {
          "name": "patientId",
          "type": "address"
        },
        {
          "name": "doctorId",
          "type": "address"
        }
      ],
      "name": "giveApproval",
      "outputs": [],
      "payable": false,
      "stateMutability": "nonpayable",
      "type": "function"
    },
    {
      "constant": false,
      "inputs": [
        {
          "name": "patientId",
          "type": "address"
        },
        {
          "name": "doctorId",
          "type": "address"
        }
      ],
      "name": "cancelApproval",
      "outputs": [],
      "payable": false,
      "stateMutability": "nonpayable",
      "type": "function"
    },
    {
      "constant": true,
      "inputs": [
        {
          "name": "personId",
          "type": "address"
        },
        {
          "name": "recordIndex",
          "type": "uint256"
        }
      ],
      "name": "getRecord",
      "outputs": [
        {
          "name": "",
          "type": "uint256"
        },
        {
          "name": "",
          "type": "string"
        },
        {
          "name": "",
          "type": "string"
        }
      ],
      "payable": false,
      "stateMutability": "view",
      "type": "function"
    },
    {
      "constant": true,
      "inputs": [
        {
          "name": "personId",
          "type": "address"
        }
      ],
      "name": "getRecordsNumber",
      "outputs": [
        {
          "name": "",
          "type": "uint256"
        }
      ],
      "payable": false,
      "stateMutability": "view",
      "type": "function"
    },
    {
      "constant": false,
      "inputs": [
        {
          "name": "doctorId",
          "type": "address"
        },
        {
          "name": "symtom",
          "type": "string"
        },
        {
          "name": "diagnosis",
          "type": "string"
        }
      ],
      "name": "addRecord",
      "outputs": [],
      "payable": false,
      "stateMutability": "nonpayable",
      "type": "function"
    }
  ],
  "bytecode": "0x608060405234801561001057600080fd5b50604051610d5e380380610d5e83398101806040528101908080519060200190929190805182019291906020018051906020019092919080519060200190929190505050336000806101000a81548173ffffffffffffffffffffffffffffffffffffffff021916908373ffffffffffffffffffffffffffffffffffffffff16021790555083600160006101000a81548173ffffffffffffffffffffffffffffffffffffffff021916908373ffffffffffffffffffffffffffffffffffffffff16021790555082600390805190602001906100eb92919061012b565b5081600460006101000a81548160ff021916908360ff16021790555080600460016101000a81548160ff021916908360ff160217905550505050506101d0565b828054600181600116156101000203166002900490600052602060002090601f016020900481019282601f1061016c57805160ff191683800117855561019a565b8280016001018555821561019a579182015b8281111561019957825182559160200191906001019061017e565b5b5090506101a791906101ab565b5090565b6101cd91905b808211156101c95760008160009055506001016101b1565b5090565b90565b610b7f806101df6000396000f300608060405260043610610083576000357c0100000000000000000000000000000000000000000000000000000000900463ffffffff168063102ad00b146100885780632f54bf6e146100eb5780634854bf03146101465780634c0d49f4146101a9578063673448dd14610200578063cdb8acf01461025b578063d47b41d514610394575b600080fd5b34801561009457600080fd5b506100e9600480360381019080803573ffffffffffffffffffffffffffffffffffffffff169060200190929190803573ffffffffffffffffffffffffffffffffffffffff169060200190929190505050610407565b005b3480156100f757600080fd5b5061012c600480360381019080803573ffffffffffffffffffffffffffffffffffffffff169060200190929190505050610479565b604051808215151515815260200191505060405180910390f35b34801561015257600080fd5b506101a7600480360381019080803573ffffffffffffffffffffffffffffffffffffffff169060200190929190803573ffffffffffffffffffffffffffffffffffffffff1690602001909291905050506104d3565b005b3480156101b557600080fd5b506101ea600480360381019080803573ffffffffffffffffffffffffffffffffffffffff169060200190929190505050610545565b6040518082815260200191505060405180910390f35b34801561020c57600080fd5b50610241600480360381019080803573ffffffffffffffffffffffffffffffffffffffff16906020019092919050505061056a565b604051808215151515815260200191505060405180910390f35b34801561026757600080fd5b506102a6600480360381019080803573ffffffffffffffffffffffffffffffffffffffff169060200190929190803590602001909291905050506105e1565b604051808481526020018060200180602001838103835285818151815260200191508051906020019080838360005b838110156102f05780820151818401526020810190506102d5565b50505050905090810190601f16801561031d5780820380516001836020036101000a031916815260200191505b50838103825284818151815260200191508051906020019080838360005b8381101561035657808201518184015260208101905061033b565b50505050905090810190601f1680156103835780820380516001836020036101000a031916815260200191505b509550505050505060405180910390f35b3480156103a057600080fd5b50610405600480360381019080803573ffffffffffffffffffffffffffffffffffffffff169060200190929190803590602001908201803590602001919091929391929390803590602001908201803590602001919091929391929390505050610800565b005b8161041181610479565b151561041c57600080fd5b6000600560008473ffffffffffffffffffffffffffffffffffffffff1673ffffffffffffffffffffffffffffffffffffffff16815260200190815260200160002060006101000a81548160ff021916908315150217905550505050565b6000600160009054906101000a900473ffffffffffffffffffffffffffffffffffffffff1673ffffffffffffffffffffffffffffffffffffffff168273ffffffffffffffffffffffffffffffffffffffff16149050919050565b816104dd81610479565b15156104e857600080fd5b6001600560008473ffffffffffffffffffffffffffffffffffffffff1673ffffffffffffffffffffffffffffffffffffffff16815260200190815260200160002060006101000a81548160ff021916908315150217905550505050565b6000816105518161056a565b151561055c57600080fd5b600680549050915050919050565b6000600560008373ffffffffffffffffffffffffffffffffffffffff1673ffffffffffffffffffffffffffffffffffffffff16815260200190815260200160002060009054906101000a900460ff16806105c957506105c882610479565b5b156105d757600190506105dc565b600090505b919050565b60006060806105ee610a68565b856105f88161056a565b151561060357600080fd5b60068681548110151561061257fe5b906000526020600020906005020160a060405190810160405290816000820154815260200160018201548152602001600282018054600181600116156101000203166002900480601f0160208091040260200160405190810160405280929190818152602001828054600181600116156101000203166002900480156106d95780601f106106ae576101008083540402835291602001916106d9565b820191906000526020600020905b8154815290600101906020018083116106bc57829003601f168201915b50505050508152602001600382018054600181600116156101000203166002900480601f01602080910402602001604051908101604052809291908181526020018280546001816001161561010002031660029004801561077b5780601f106107505761010080835404028352916020019161077b565b820191906000526020600020905b81548152906001019060200180831161075e57829003601f168201915b505050505081526020016004820160009054906101000a900473ffffffffffffffffffffffffffffffffffffffff1673ffffffffffffffffffffffffffffffffffffffff1673ffffffffffffffffffffffffffffffffffffffff1681525050915081602001518260400151836060015181915080905094509450945050509250925092565b60008561080c8161056a565b151561081757600080fd5b858585858a60405160200180868680828437820191505084848082843782019150508273ffffffffffffffffffffffffffffffffffffffff1673ffffffffffffffffffffffffffffffffffffffff166c01000000000000000000000000028152601401955050505050506040516020818303038152906040526040518082805190602001908083835b6020831015156108c557805182526020820191506020810190506020830392506108a0565b6001836020036101000a0380198251168184511680821785525050505050509050019150506040518091039020600190049150600660a06040519081016040528084815260200142815260200188888080601f016020809104026020016040519081016040528093929190818152602001838380828437820191505050505050815260200186868080601f01602080910402602001604051908101604052809392919081815260200183838082843782019150505050505081526020018973ffffffffffffffffffffffffffffffffffffffff1681525090806001815401808255809150509060018203906000526020600020906005020160009091929091909150600082015181600001556020820151816001015560408201518160020190805190602001906109f7929190610aae565b506060820151816003019080519060200190610a14929190610aae565b5060808201518160040160006101000a81548173ffffffffffffffffffffffffffffffffffffffff021916908373ffffffffffffffffffffffffffffffffffffffff16021790555050505050505050505050565b60a06040519081016040528060008152602001600081526020016060815260200160608152602001600073ffffffffffffffffffffffffffffffffffffffff1681525090565b828054600181600116156101000203166002900490600052602060002090601f016020900481019282601f10610aef57805160ff1916838001178555610b1d565b82800160010185558215610b1d579182015b82811115610b1c578251825591602001919060010190610b01565b5b509050610b2a9190610b2e565b5090565b610b5091905b80821115610b4c576000816000905550600101610b34565b5090565b905600a165627a7a72305820929aeb788cff5c3dd69049dcf761ec3975484ccc36f90a6a4dc3d1c37a1295c00029",
  "source": "pragma solidity ^0.4.25;\r\n\r\nimport \"./person.sol\";\r\nimport \"./repo.sol\";\r\n\r\ncontract Patient is Person {\r\n\r\n    repository.Record[] private records;\r\n    \r\n    constructor(address _owner, string _name, uint8 _age, uint8 _gender)\r\n        public\r\n    {\r\n        controller = msg.sender;\r\n        owner = _owner;\r\n        name = _name;\r\n        age = _age;\r\n        gender = _gender;\r\n    }\r\n    \r\n    function giveApproval(address patientId, address doctorId)\r\n        external\r\n        onlyOwner(patientId)\r\n    {\r\n        approvals[doctorId] = true;\r\n    }\r\n    \r\n    function cancelApproval(address patientId, address doctorId)\r\n        external\r\n        onlyOwner(patientId)\r\n    {\r\n        approvals[doctorId] = false;\r\n    }\r\n    \r\n    function getRecord(address personId, uint256 recordIndex)\r\n        external\r\n        view\r\n        onlyApproved(personId)\r\n        returns(uint, string, string)\r\n    {\r\n        repository.Record memory record = records[recordIndex];\r\n        return (record.time, record.symtom, record.diagnosis);\r\n    }\r\n    \r\n    function getRecordsNumber(address personId)\r\n        external\r\n        view\r\n        onlyApproved(personId)\r\n        returns(uint)\r\n    {\r\n        return records.length;\r\n    }\r\n    \r\n    function addRecord(address doctorId, string symtom, string diagnosis)\r\n        external\r\n        onlyApproved(doctorId)\r\n    {\r\n        uint recordId = uint(keccak256(abi.encodePacked(symtom, diagnosis, doctorId)));\r\n        records.push(repository.Record(recordId, now, symtom, diagnosis, doctorId));\r\n    }\r\n}",
  "sourcePath": "A:\\Ethereum\\ehrProject\\contracts\\patient.sol",
  "compiler": {
    "name": "solc",
    "version": "0.4.25+commit.59dbf8f1.Emscripten.clang"
  },
  "schemaVersion": "3.0.0",
  "updatedAt": "2018-12-31T15:18:50.849Z",
  "devdoc": {
    "methods": {}
  },
  "userdoc": {
    "methods": {}
  }
}