{
  "contractName": "Person",
  "abi": [
    {
      "constant": true,
      "inputs": [
        {
          "name": "_sender",
          "type": "address"
        }
      ],
      "name": "isApproved",
      "outputs": [
        {
          "name": "",
          "type": "bool"
        }
      ],
      "payable": false,
      "stateMutability": "view",
      "type": "function"
    },
    {
      "constant": true,
      "inputs": [
        {
          "name": "_sender",
          "type": "address"
        }
      ],
      "name": "isOwner",
      "outputs": [
        {
          "name": "",
          "type": "bool"
        }
      ],
      "payable": false,
      "stateMutability": "view",
      "type": "function"
    }
  ],
  "bytecode": "0x608060405234801561001057600080fd5b50610204806100206000396000f30060806040526004361061004c576000357c0100000000000000000000000000000000000000000000000000000000900463ffffffff1680632f54bf6e14610051578063673448dd146100ac575b600080fd5b34801561005d57600080fd5b50610092600480360381019080803573ffffffffffffffffffffffffffffffffffffffff169060200190929190505050610107565b604051808215151515815260200191505060405180910390f35b3480156100b857600080fd5b506100ed600480360381019080803573ffffffffffffffffffffffffffffffffffffffff169060200190929190505050610161565b604051808215151515815260200191505060405180910390f35b6000600160009054906101000a900473ffffffffffffffffffffffffffffffffffffffff1673ffffffffffffffffffffffffffffffffffffffff168273ffffffffffffffffffffffffffffffffffffffff16149050919050565b6000600560008373ffffffffffffffffffffffffffffffffffffffff1673ffffffffffffffffffffffffffffffffffffffff16815260200190815260200160002060009054906101000a900460ff16806101c057506101bf82610107565b5b156101ce57600190506101d3565b600090505b9190505600a165627a7a723058208d51fe381cc159dcd91e11fef2e1c14c4931f0d8cf6e1e1da69a3c2271a83fe70029",
  "source": "pragma solidity ^0.4.25;\r\n\r\ncontract Person {\r\n    address controller;\r\n    address owner;\r\n    uint256 id;\r\n    string name;\r\n    uint8 age;\r\n    uint8 gender;\r\n    \r\n    mapping (address => bool) approvals;\r\n    \r\n    modifier onlyController() {\r\n        require(msg.sender == controller);\r\n        _;\r\n    }\r\n    \r\n    modifier onlyOwner(address _sender) {\r\n        require(isOwner(_sender));\r\n        _;\r\n    }\r\n    \r\n    modifier onlyApproved(address _sender) {\r\n        require(isApproved(_sender));\r\n        _;\r\n    }\r\n    \r\n    function isApproved(address _sender) public view returns(bool) {\r\n        if (approvals[_sender] || isOwner(_sender)) {\r\n            return true;\r\n        }\r\n        return false;\r\n    }\r\n    \r\n    function isOwner(address _sender) public view returns(bool) {\r\n        return _sender == owner;\r\n    }\r\n    \r\n}",
  "sourcePath": "A:\\Ethereum\\ehrProject\\contracts\\person.sol",
  "compiler": {
    "name": "solc",
    "version": "0.4.25+commit.59dbf8f1.Emscripten.clang"
  },
  "schemaVersion": "3.0.0",
  "updatedAt": "2018-12-31T15:18:50.846Z",
  "devdoc": {
    "methods": {}
  },
  "userdoc": {
    "methods": {}
  }
}